:100000000C94A0000C94C8000C94C8000C94C80078
:100010000C94C8000C94C8000C94C8000C94C80040
:100020000C94C8000C94C8000C94C8000C94C80030
:100030000C94C8000C94C8000C94C8000C94C80020
:100040000C9465100C94C8000C94BE0C0C94F00C2D
:100050000C94C8000C94C8000C94C8000C94C80000
:100060000C9468050C94C80007634236B79BD8A768
:100070001A39685618AEBAAB558C1D3CB7CC5763CD
:10008000BD6DEDFD753EF6177231BF000000803F7B
:1000900008000000BE922449123EABAAAA2ABECD97
:1000A000CCCC4C3E00000080BEABAAAAAA3E000009
:1000B0000000BF000000803F000000000008417801
:1000C000D3BB4387D1133D190E3CC3BD4282AD2B38
:1000D0003E68EC8276BED98FE1A93E4C80EFFFBE30
:1000E00001C4FF7F3F000000000000000008000284
:1000F00001000003040700000000000000000102EE
:1001000004081020408001020408102001020408A5
:100110001020040404040404040402020202020283
:1001200003030303030300000000250028002B0045
:1001300000000000240027002A0086046807200D24
:1001400011241FBECFEFD8E0DEBFCDBF13E0A0E08B
:10015000B1E0E0EDFFE202C005900D92A03FB107D3
:10016000D9F725E0A0EFB3E001C01D92AA3CB20789
:10017000E1F711E0C0E4D1E004C02297FE010E9443
:10018000AA15CA33D107C9F70E9456100C94E61776
:100190000C940000CF92DF92EF92FF920E94AF107A
:1001A0000E94DC1220E030E04AE754E40E9443124F
:1001B0006B017C016093010470930204809303043B
:1001C000909304040E94AB12CB016CE370E00E9498
:1001D0005E15BC01882777FD8095982F0E94DE125E
:1001E0006093F5037093F6038093F7039093F803FD
:1001F00020E030E040E752E4C701B6010E9443121C
:100200006093F9037093FA038093FB039093FC03CC
:1002100020E030E040E752E40E9443126093FD0387
:100220007093FE038093FF039093000466E071E0F7
:1002300080E295E00E94AF0D20E030E040E251E422
:100240006091FD037091FE038091FF039091000483
:100250000E943F1287FF06C068E071E080E295E0EF
:100260000E94AF0D6091FD037091FE038091FF032A
:10027000909100040E94AB124AE050E080E295E0C9
:100280000E94830E6AE071E080E295E00E94AF0D6B
:1002900020E030E040E251E46091F9037091FA030C
:1002A0008091FB039091FC030E943F1287FF06C0E0
:1002B00068E071E080E295E00E94AF0D6091F90383
:1002C0007091FA038091FB039091FC030E94AB12A2
:1002D0004AE050E080E295E00E94830E6AE071E01F
:1002E00080E295E00E94AF0D20E030E040E251E472
:1002F0006091F5037091F6038091F7039091F803F4
:100300000E943F1287FF06C068E071E080E295E03E
:100310000E94AF0D6091F5037091F6038091F70391
:100320009091F8030E94AB124AE050E080E295E021
:100330000E94830E6CE071E080E295E0FF90EF9008
:10034000DF90CF900C94AF0DCF93DF9300D000D00F
:1003500000D0CDB7DEB78C0161E08DE00E94A31123
:100360000E94CA006FE071E0CE0101960E94E60F84
:10037000B801CE0101960E9428106EE271E00E9441
:100380003B1062EE73E00E943B1061E371E00E945B
:100390003B10BC0180E295E00E94BC0DCE010196AD
:1003A0000E94780FFFCFCF92DF92EF92FF92CF9310
:1003B000DF936A017B01E901BC0180E295E00E94C4
:1003C000A10D22E030E0B701A60180E295E00E9495
:1003D000760FBE0180E295E0DF91CF91FF90EF9024
:1003E000DF90CF900C94A10D85E194E00E94380B32
:1003F0008823D9F1682F772767FD7095872F972F6E
:100400000E94DE1061E174E085E194E00E948C09B5
:10041000882341F163E085E194E00E944E0B88233C
:10042000F1F0682F772767FD7095872F972F0E942F
:10043000DE1041E154E069E074E085E194E00E945F
:10044000FD09882349F06091090470910A048091A4
:100450000B0490910C04089568E471E008C06FE605
:1004600071E005C064E971E002C067EC71E080E210
:1004700095E00E94CE0D60E070E0CB010895CF9230
:10048000DF92EF92FF92CF93DF93CDB7DEB72C9739
:100490000FB6F894DEBF0FBECDBF61E08DE00E94C5
:1004A0006A1126E040E855E260E070E080E295E005
:1004B0000E945C0C0E94CA0068EF71E080E295E047
:1004C0000E94CE0D85E194E00E942208882309F461
:1004D000ECC00E94CA0085E194E00E9422088823B3
:1004E00009F4D4C068E072E080E295E00E94CE0D8D
:1004F0000E94CA0062E372E080E295E00E94CE0DA5
:1005000068EE73E080E090E00E94DE100E94F4014B
:100510006093050470930604809307049093080485
:100520000E94CA006EE572E0CE0101960E94E60FBD
:10053000C0900504D0900604E0900704F0900804F1
:1005400063E672E0CE0107960E94E60F9E012F5FE0
:100550003F4FB701A601CE0107960E94D301CE01FD
:1005600007960E94780FCE0101960E94780F80E2D4
:1005700095E00E94B80D0E94CA0069E772E0CE01C2
:1005800001960E94E60F61E872E0CE0107960E9494
:10059000E60F9E012F5F3F4F40E050E46CE976E4A8
:1005A000CE0107960E94D301CE0107960E94780FD4
:1005B000CE0101960E94780F68E972E0CE010196A3
:1005C0000E94E60F61EA72E0CE0107960E94E60FF4
:1005D0009E012F5F3F4F46E658E260E877E4CE0188
:1005E00007960E94D301CE0107960E94780FCE0194
:1005F00001960E94780F69E772E0CE0101960E9491
:10060000E60F64EA72E0CE0107960E94E60F9E01B3
:100610002F5F3F4F40E058E962EB76E4CE0107964A
:100620000E94D301CE0107960E94780FCE01019659
:100630000E94780F6DEB72E0CE0101960E94E60FEA
:1006400061EA72E0CE0107960E94E60F9E012F5FDD
:100650003F4F40E05CE762E977E4CE0107960E94F5
:10066000D301CE0107960E94780FCE0101960E9419
:10067000780F80E295E00E94B80D0E94CA0063EEF8
:1006800072E080E295E00E94CE0D0FC06FEF72E045
:1006900080E295E00E94CE0D0E94CA0061E371E005
:1006A00080E295E00E94CE0DFFCF68EB7BE080E01A
:1006B00090E00E94DE102C960FB6F894DEBF0FBEBD
:1006C000CDBFDF91CF91FF90EF90DF90CF90089555
:1006D000CF92DF92EF92FF920F931F93CF93DF930E
:1006E000CDB7DEB72C970FB6F894DEBF0FBECDBFE7
:1006F0000E94F401AB01BC014093090450930A0429
:1007000060930B0470930C0400910504109106048F
:10071000209107043091080485E194E00E946D0760
:1007200060930D0470930E0480930F049093100453
:1007300020E038E942EB56E40E943F1287FD10C0EA
:1007400020E030E041EE54E4609101047091020435
:1007500080910304909104040E943F1287FF09C016
:1007600060E08DE00E94A3111092F4031092F30355
:1007700009C08091F3039091F40301969093F403E0
:100780008093F3038091F3039091F40306971CF098
:100790006BE373E012C020E030EA4CE856E460916D
:1007A00001047091020480910304909104040E945A
:1007B0008E13181654F461E573E0CE0101960E9481
:1007C000E60FCE0101960E94A40120E030E040EA4D
:1007D00051E460910D0470910E0480910F0490918A
:1007E00010040E948E13181654F48091F103909116
:1007F000F20301969093F2038093F10304C01092E8
:10080000F2031092F1038091F1039091F2030697A5
:100810005CF081E08093F0030E94CA0063E673E01D
:1008200080E295E00E94CE0D8091F003882309F4C8
:1008300058C00E94CA0060E973E0CE0101960E9490
:10084000E60FC0900D04D0900E04E0900F04F090DD
:10085000100469E973E0CE0107960E94E60F9E013D
:100860002F5F3F4FB701A601CE0107960E94D3012B
:10087000CE0107960E94780FCE0101960E94780F54
:1008800066EA73E0CE0101960E94E60F28E439EF94
:1008900041E550E460910D0470910E0480910F04C5
:1008A000909110040E9492136B017C0162EA72E045
:1008B000CE0107960E94E60F9E012F5F3F4FB701C2
:1008C000A601CE0107960E94D301CE0107960E9491
:1008D000780FCE0101960E94780F80E295E00E9489
:1008E000B80D68EE73E080E090E00E94DE102C9678
:1008F0000FB6F894DEBF0FBECDBFDF91CF911F9131
:100900000F91FF90EF90DF90CF90089585E194E0F4
:100910000C946C071092CD0481E08093CB0410926C
:10092000CA0461E082E10E94A31161E083E10E94B8
:10093000A311E9EBF0E080818E7F808380818D7F41
:10094000808388E48093B80085E48093BC00089598
:10095000413208F03FC09091CD049111FCCF91E05D
:100960009093CD042093CB042FEF2093600410923A
:10097000A504240F2093A4049093CC049091CC045C
:10098000880F892B8093CC048091CA04813041F474
:100990001092CA048091CC048093BB0085EC01C006
:1009A00085EE8093BC008091CD048130E1F380918D
:1009B000A504841710F44091A50426EA34E0FB0155
:1009C000D9018A2F821B841718F48D918193F9CF56
:1009D000842F089580E008950F93413208F046C0B7
:1009E0009091CD049111FCCF92E09093CD040093AF
:1009F000CB049FEF909360041092A5044093A4044D
:100A0000FB0166EA74E0DB019A2F961B941718F439
:100A100091919D93F9CF1092CC049091CC04880FC2
:100A2000892B8093CC048091CA04813041F41092C8
:100A3000CA048091CC048093BB0085EC01C085EE94
:100A40008093BC00222321F08091CD048230E1F319
:100A5000809160048F3F61F080916004803251F09A
:100A600080916004803341F483E007C081E005C0D9
:100A700080E003C082E001C084E00F9108956132FC
:100A800098F42091CD04243089F460938204FC0111
:100A900084E894E0DC012A2F281B261718F4219102
:100AA0002D93F9CF80E0089581E0089582E00895C4
:100AB00085ED8093BC008091BC0084FDFCCF10923A
:100AC000CD04089585EC8093BC001092CD04089568
:100AD0001F920F920FB60F9211242F933F934F93B3
:100AE0005F936F937F938F939F93AF93BF93EF9396
:100AF000FF938091B900887F803609F49CC068F527
:100B0000883209F45BC090F4803109F454C038F4A1
:100B1000882309F4F5C0883009F44DC0F5C0883148
:100B200009F44CC0803209F45DC0EEC0803409F491
:100B300068C048F4803309F455C0883309F0E4C034
:100B400080936004A8C0803509F44FC0883509F44B
:100B50005DC0883409F0D8C0D5C0883909F4C6C052
:100B6000A8F4883709F467C038F4883609F463C0FC
:100B7000803709F460C0C8C0883809F4B7C080392C
:100B800009F45FC0803809F0BFC05BC0803B09F446
:100B900085C038F4803A09F466C0883A09F47EC00A
:100BA000B3C0803C09F4A6C0883C09F4A3C0883BCC
:100BB00009F489C0A9C08091CC0410C09091A5040B
:100BC0008091A404981770F5E091A50481E08E0F40
:100BD0008093A504F0E0EA55FB4F80818093BB0031
:100BE00085EC85C0809360048DC0E091A50481E010
:100BF0008E0F8093A5048091BB00F0E0EA55FB4F77
:100C000080839091A5048091A4046DC0E091A50417
:100C100081E08E0F8093A5048091BB00F0E0EA553F
:100C2000FB4F80838091CB0481116CC081E0809365
:100C3000CA0484EA60C083E08093CD04109261040A
:100C4000CFCF80916104803208F050C0E091610400
:100C500081E08E0F809361048091BB00F0E0EE593B
:100C6000FB4F8083BDCF80916104803230F4E091EE
:100C70006104F0E0EE59FB4F10820E94580560912C
:100C8000610470E0E091C604F091C70482E694E04C
:100C90000995109261040E94620536C084E0809339
:100CA000CD041092830410928204E091C804F09164
:100CB000C904099580918204811105C081E0809367
:100CC000820410928404E091830481E08E0F80936B
:100CD0008304F0E0EC57FB4F80818093BB00909140
:100CE000830480918204981708F47ACF85E8809372
:100CF000BC000AC085EC8093BC001092CD0404C0F7
:100D0000109260040E945805FF91EF91BF91AF913E
:100D10009F918F917F916F915F914F913F912F9113
:100D20000F900FBE0F901F9018958091FE0490E0D9
:100D30002091FF04821B910908952091FF04809166
:100D4000FE04281750F4E22FF0E0E050FB4F8081C2
:100D500090E02F5F2093FF0408958FEF9FEF089599
:100D6000E091FF048091FE04E81730F4F0E0E050D9
:100D7000FB4F808190E008958FEF9FEF08950895D5
:100D8000CF92DF92EF92FF920F931F93CF93DF9357
:100D90007C01CB018A012091DA04222389F0EB0146
:100DA0006B01C40ED51ECC15DD0569F06991D70124
:100DB000ED91FC910190F081E02DC7010995F3CFF1
:100DC000642F0E943F05C801DF91CF911F910F91C1
:100DD000FF90EF90DF90CF900895CF93DF931F9215
:100DE000CDB7DEB769832091DA042223D1F02091B8
:100DF000DB04203240F021E030E0FC013383228329
:100E000080E090E015C08091DC04E82FF0E0E35230
:100E1000FB4F998190838F5F8093DC048093DB0488
:100E200005C061E0CE0101960E943F0581E090E09F
:100E30000F90DF91CF910895FC011382128248EE4A
:100E400053E060E070E0448355836683778385ECEC
:100E500093E09183808308951092FF041092FE0422
:100E60001092DC041092DB040C948A04862F413229
:100E700008F040E260E075E00E94A8041092FF04D0
:100E80008093FE04089521E00C94360781E080935E
:100E9000DA046093FD041092DC041092DB040895E0
:100EA0000C9446070F93062F21E04091DB046DED73
:100EB00074E08091FD040E94EC041092DC04109216
:100EC000DB041092DA040F91089561E00C9452074C
:100ED0008EEC94E00C941C0708950F931F93CB01A4
:100EE000BA01A90198010E9443122EEA3CED42E4A6
:100EF0005EE30E94F5139B01AC0160E070E080E8C6
:100F00009FE30E94DA1120E03AE24DE257E40E94AA
:100F100092131F910F910895EF92FF920F931F93D9
:100F2000CF93DF938C01EB01E42E67E770E08EEC4A
:100F300094E00E94500768818EEC94E00E94ED06D8
:100F40008EEC94E00E946507F801E65BFF4F80831A
:100F5000811124C00E2D112707FD1095A80167E708
:100F600070E08EEC94E00E9443078EEC94E00E94C7
:100F7000950680179107C9F7F12CFE146CF48E01C9
:100F80000F0D111DF7FC1A958EEC94E00E949D0642
:100F9000F8018083F394F1CF81E001C080E0DF911C
:100FA000CF911F910F91FF90EF9008950F931F9392
:100FB000CF93DF9300D0CDB7DEB78A01698342E0DB
:100FC000BE016F5F7F4F0E948C07882359F0898193
:100FD00090E0982F88272A81822BF80191838083C3
:100FE00081E003C0F801118210820F900F90DF9111
:100FF000CF911F910F9108950F931F93CF93DF937C
:1010000000D0CDB7DEB78A01698342E0BE016F5FD1
:101010007F4F0E948C07882359F0898190E0982F98
:1010200088272A81822BF8019183808381E003C085
:10103000F801118210820F900F90DF91CF911F91D4
:101040000F9108954F925F926F927F928F929F922D
:10105000AF92BF92CF92DF92EF92FF92CF93DF9346
:10106000EC018EEC94E00E942C07AE016AEACE01FE
:101070000E94D607882309F43FC1AE014E5F5F4F3F
:101080006CEACE010E94D607882309F435C1AE016F
:101090004C5F5F4F6EEACE010E94D607882309F4A9
:1010A0002BC1AE01405F5F4F60EBCE010E94FC0799
:1010B000882309F421C1AE014E5E5F4F62EBCE0181
:1010C0000E94FC07882309F417C1AE014C5E5F4FF4
:1010D00064EBCE010E94FC07882309F40DC1AE0128
:1010E0004A5F5F4F66EBCE010E94D607882309F462
:1010F00003C1AE01485F5F4F68EBCE010E94D60787
:10110000882309F4F9C0AE01465F5F4F6AEBCE0158
:101110000E94D607882309F4EFC0AE01445F5F4FF9
:101120006CEBCE010E94D607882309F4E5C0AE011E
:10113000425F5F4F6EEBCE010E94D607882309F411
:10114000DBC06C817D81882777FD8095982F0E9478
:10115000DE1220E030E040EA5BE30E9492132B01B4
:101160003C016889798980E090E00E94DC122FE6DA
:1011700032E143E053E30E9492136B017C016E81E4
:101180007F81882777FD8095982F0E94DE1220E0CE
:1011900030E048EC57E30E9492134B015C016A89EE
:1011A0007B8980E090E00E94DC122DEC3CEC4CE46A
:1011B00054E30E9492136E8B7F8B888F998F6C897A
:1011C0007D8980E090E00E94DC126A8F7B8F8C8F9B
:1011D0009D8F6C857D85882777FD8095982F0E944F
:1011E000DE122AE037ED43EA5DE30E9492136E8F30
:1011F0007F8F88A399A36E857F85882777FD80954B
:10120000982F0E94DE1220E030E040E253E40E947A
:1012100043126AA37BA38CA39DA36881798188274D
:1012200077FD8095982F0E94DE126EA37FA388A77A
:1012300099A76A817B81882777FD8095982F0E94E6
:10124000DE1220E030E040EA5CE30E9492136AA7DD
:101250007BA78CA79DA768857985882777FD8095D2
:10126000982F0E94DE1220E030E048E45AE30E940A
:1012700092136EA77FA788AB99AB20E030E040E0E7
:1012800057E4C701B6010E9492136AAB7BAB8CABEB
:101290009DABA3019201C701B6010E9492136EABF0
:1012A0007FAB88AF99AFA5019401C701B6010E9439
:1012B00092136AAF7BAF8CAF9DAFFE01FE968CEEB2
:1012C00091E5A7E1B0E480839183A283B383349650
:1012D00080E394E3AEE7BFE380839183A283B3838B
:1012E000CA5BDF4F80E097E5A4E9B6E38883998382
:1012F000AA83BB8381E001C080E0DF91CF91FF90A2
:10130000EF90DF90CF90BF90AF909F908F907F90A5
:101310006F905F904F9008959F92AF92BF92CF923F
:10132000DF92EF92FF920F931F93CF93DF9300D042
:10133000CDB7DEB78C015B0186EF898342E0BE0149
:101340006F5F7F4FC8010E948C07982E882309F495
:1013500045C0698170E080E090E00E94DE1220E0EC
:1013600030E040E853E40E9492136B017C016A81F3
:1013700070E080E090E00E94DE129B01AC01C701AA
:10138000B6010E94DB11F801228D338D448D558DFD
:101390000E94DA11F80126893789408D518D0E940B
:1013A00092136B017C01F80122A133A144A155A144
:1013B0000E94DB119B01AC01F801668D778D80A145
:1013C00091A10E9443129B01AC01C701B6010E948A
:1013D000DB11F5016083718382839383892D0F90E4
:1013E0000F90DF91CF911F910F91FF90EF90DF90C1
:1013F000CF90BF90AF909F9008953F924F925F9291
:101400006F927F928F929F92AF92BF92CF92DF9214
:10141000EF92FF920F931F93CF93DF93CDB7DEB779
:1014200029970FB6F894DEBF0FBECDBF8C017D8328
:101430006C837A0186EF898343E0BE016F5F7F4F43
:10144000C8010E948C07382E882309F4C9C020E007
:1014500030E048EC51E4F701608171818281938131
:101460000E94DA116B017C019B01AC010E94921376
:101470004B015C01698170E080E090E00E94DE1227
:1014800020E030E040E853E40E9492132B013C013D
:101490006A8170E080E090E00E94DE129B01AC0166
:1014A000C301B2010E94DB112B013C016B8170E092
:1014B00080E090E00E94DE1220E030E040E85BE354
:1014C0000E9492139B01AC01C301B2010E94DB1187
:1014D0006E837F8388879987F80126A537A540A961
:1014E00051A9C501B4010E9492132B013C01F801DE
:1014F00022A533A544A555A5C701B6010E949213A4
:101500009B01AC01C301B2010E94DB11F80126A1CD
:1015100037A140A551A50E94DB119B01AC016E8152
:101520007F81888599850E94DA112B013C01F801A1
:1015300022AD33AD44AD55ADC501B4010E94921347
:101540004B015C01F80126A937A940AD51ADC70197
:10155000B6010E9492139B01AC01C501B4010E9427
:10156000DB11F80122A933A944A955A90E94DB1176
:101570009B01AC01C301B2010E9443124B015C010B
:101580007801F6E4EF0EF11C9B01AC010E9492136E
:10159000F70120813181428153810E9492136B01B6
:1015A0007C01F801EE5BFF4F208131814281538144
:1015B000C501B4010E9492139B01AC01C701B601A1
:1015C0000E94DB11F801FE96208131814281538116
:1015D0000E94DB11EC81FD816083718382839383A0
:1015E000832D29960FB6F894DEBF0FBECDBFDF91D5
:1015F000CF911F910F91FF90EF90DF90CF90BF9010
:10160000AF909F908F907F906F905F904F903F90A2
:101610000895EF92FF920F931F93CF93DF931F9242
:10162000CDB7DEB77C018B0167E770E08EEC94E00C
:1016300049830E9450074981552747FD5095B801BD
:101640008EEC94E00E94C0068EEC94E00E94650748
:10165000982FF701E65BFF4F808381E0911180E0D6
:101660000F90DF91CF911F910F91FF90EF90089510
:10167000CF93DF9300D0CDB7DEB724EF29832EE2DE
:101680002A8342E0BE016F5F7F4F0E94090B8111E8
:1016900085E00F900F90DF91CF9108951F93CF9326
:1016A000DF9300D0CDB7DEB724EF2983613041F05E
:1016B0007CF0623049F0633059F42A831AE10BC0A0
:1016C00024E72A8318E007C024EB2A831EE003C026
:1016D00024E32A8315E042E0BE016F5F7F4F0E9442
:1016E000090B8111812F0F900F90DF91CF911F91E6
:1016F0000895FC01818D228D90E0805C9F4F821BBC
:1017000091098F7399270895FC01918D828D981707
:1017100031F0828DE80FF11D858D90E008958FEFF7
:101720009FEF0895FC01918D828D981761F0828D55
:10173000DF01A80FB11D5D968C91928D9F5F9F7305
:10174000928F90E008958FEF9FEF089586E19DE0DE
:10175000892B49F080E090E0892B29F00E94160D3A
:1017600081110C9400000895FC01848DDF01A80F05
:10177000B11DA35ABF4F2C91848D90E001968F73B9
:101780009927848FA689B7892C93A089B1898C91D8
:1017900080648C93938D848D981306C00288F3899E
:1017A000E02D80818F7D80830895CF93DF93EC01BE
:1017B000888D8823C9F0EA89FB89808185FD05C071
:1017C000A889B9898C9186FD0FC00FB607FCF5CFAB
:1017D000808185FFF2CFA889B9898C9185FFEDCFF3
:1017E000CE010E94B40BE7CFDF91CF910895CF9245
:1017F000DF92FF920F931F93CF93DF931F92CDB78A
:10180000DEB76C0181E0D60158968C9358975B96B1
:101810009C915B975C968C915C97981307C050964F
:10182000ED91FC915197808185FD2EC0F601038DCD
:1018300010E00F5F1F4F0F731127F02EF601848DFC
:10184000F81211C00FB607FCF9CFD6015096ED91F2
:10185000FC915197808185FFF1CFC60169830E9479
:10186000B40B6981EBCF838DE80FF11DE35AFF4F75
:101870006083D6015B960C935B975296ED91FC9139
:101880005397808180620CC0D6015696ED91FC91F1
:10189000579760835096ED91FC91519780818064B9
:1018A000808381E090E00F90DF91CF911F910F91A5
:1018B000FF90DF90CF900895BF92CF92DF92EF928A
:1018C000FF92CF93DF93EC016A017B01B22EE8898E
:1018D000F98982E08083411581EE58076105710521
:1018E000A1F060E079E08DE390E0A70196010E940D
:1018F000721521503109410951095695479537957F
:101900002795211580E1380798F0E889F989108238
:1019100060E874E88EE190E0A70196010E947215DC
:101920002150310941095109569547953795279519
:10193000EC85FD853083EE85FF852083188EEC894C
:10194000FD89B082EA89FB89808180618083EA8990
:10195000FB89808188608083EA89FB898081806837
:101960008083EA89FB8980818F7D8083DF91CF919D
:10197000FF90EF90DF90CF90BF9008951F920F924D
:101980000FB60F9211242F938F939F93EF93FF9392
:10199000E0913005F09131058081E0913605F091BC
:1019A000370582FD12C09081809139058F5F8F735A
:1019B00020913A05821751F0E0913905F0E0E05EA0
:1019C000FA4F958F8093390501C08081FF91EF9187
:1019D0009F918F912F910F900FBE0F901F90189590
:1019E0001F920F920FB60F9211242F933F934F9394
:1019F0005F936F937F938F939F93AF93BF93EF9377
:101A0000FF9380E295E00E94B40BFF91EF91BF91AC
:101A1000AF919F918F917F916F915F914F913F9186
:101A20002F910F900FBE0F901F90189580E295E0B8
:101A30000E94790B21E0892B09F420E0822F089580
:101A4000109223051092220588EE93E0A0E0B0E00A
:101A50008093240590932505A0932605B093270530
:101A600085ED93E0909321058093200585EC90E02F
:101A700090932D0580932C0584EC90E090932F0596
:101A800080932E0580EC90E0909331058093300593
:101A900081EC90E0909333058093320582EC90E0E6
:101AA000909335058093340586EC90E0909337054C
:101AB000809336051092390510923A0510923B0535
:101AC00010923C050895CF92DF92EF92FF920F9310
:101AD0001F93CF93DF936C017A01EB01E60EF71EA3
:101AE00000E010E0CE15DF0561F06991D601ED91BF
:101AF000FC910190F081E02DC6010995080F191F96
:101B0000F1CFC801DF91CF911F910F91FF90EF901E
:101B1000DF90CF9008956115710581F0DB010D9084
:101B20000020E9F7AD0141505109461B570BDC017C
:101B3000ED91FC910280F381E02D099480E090E02A
:101B40000895DC01ED91FC91DB0114964D915C91BF
:101B500015976D917C910280F381E02D09940C948E
:101B60008B0DDC01ED91FC910190F081E02D099449
:101B700061EE73E00C948B0D0F931F93CF93DF9363
:101B8000EC010E94A10D8C01CE010E94B80D800FC6
:101B9000911FDF91CF911F910F9108950F931F9384
:101BA000CF93DF93EC010E948B0D8C01CE010E943C
:101BB000B80D800F911FDF91CF911F910F91089564
:101BC0008F929F92AF92BF92CF92DF92EF92FF924D
:101BD0000F931F93CF93DF93CDB7DEB7A1970FB6C7
:101BE000F894DEBF0FBECDBF7C01C42EE52FCB0124
:101BF000D22E19A221E02D1510F02AE0D22E8E014E
:101C00000F5D1F4F8D2C912CA12CB12C6C2D7E2F94
:101C1000A50194010E9472158C2DD29E8019112469
:101C2000015011098A3014F4805D01C0895CF8010B
:101C30008083211531054105510521F0C22EE32F86
:101C4000CA01E4CFB801C7010E948B0DA1960FB65F
:101C5000F894DEBF0FBECDBFDF91CF911F910F91E2
:101C6000FF90EF90DF90CF90BF90AF909F908F90BC
:101C70000895CF92DF92EF92FF920F931F93CF932D
:101C8000DF93EC016A017B012115310579F4E881CC
:101C9000F9810190F081E02D642FDF91CF911F91A8
:101CA0000F91FF90EF90DF90CF9009942A3031058B
:101CB000E9F477FF1AC06DE20E94B10D8C01442750
:101CC0005527BA014C195D096E097F092AE0CE013A
:101CD0000E94E00D800F911FDF91CF911F910F9116
:101CE000FF90EF90DF90CF9008952AE0B701A60112
:101CF000CE01DF91CF911F910F91FF90EF90DF9078
:101D0000CF900C94E00D9A01AB01662757FD6095CA
:101D1000762F0C94390E4F925F926F927F928F9232
:101D20009F92AF92BF92CF92DF92EF92FF920F936A
:101D30001F93CF93DF93EC016A017B01B22E9A01CE
:101D4000AB01C701B6010E944114882319F064EE6B
:101D500073E027C026013701E89477F82FEF3FEFB3
:101D60004FE75FE7C301B2010E94411481110DC02A
:101D70002FEF3FEF4FE75FE7C301B2010E943F1231
:101D800018161CF468EE73E00CC02FEF3FEF4FE71E
:101D90005FE4C701B6010E948E131816ACF46CEE16
:101DA00073E0CE01DF91CF911F910F91FF90EF90E3
:101DB000DF90CF90BF90AF909F908F907F906F906B
:101DC0005F904F900C948B0D2FEF3FEF4FE75FEC40
:101DD000C701B6010E943F1287FDE1CF20E030E04D
:101DE000A901C701B6010E943F1287FF0AC06DE238
:101DF000CE010E94B10D8C01F7FAF094F7F8F0943F
:101E000002C000E010E0A12C60E070E080E09FE301
:101E1000AB1441F020E030E040E251E40E94431274
:101E2000A394F6CF9B01AC01C701B6010E94DB1160
:101E30006B017C010E94B0122B013C010E94DC125C
:101E40009B01AC01C701B6010E94DA116B017C0154
:101E50002AE0B301A201CE010E94E00D080F191F74
:101E6000BB2039F06FE271E0CE010E948B0D080FAC
:101E7000191F7B2C772041F120E030E040E251E453
:101E8000C701B6010E9492136B017C010E94AB1244
:101E90004B01AA2497FCA094BA2C2AE030E0B501AB
:101EA000A401CE010E94390E080F191FC501B4010B
:101EB0000E94DE129B01AC01C701B6010E94DA113B
:101EC0006B017C017A94D6CFC801DF91CF911F912D
:101ED0000F91FF90EF90DF90CF90BF90AF909F90C9
:101EE0008F907F906F905F904F9008950C948B0E21
:101EF000FC01808191810C944616CF93DF93EC0115
:101F000088819981009711F00E94461619821882E3
:101F10001D821C821B821A82DF91CF9108950F933C
:101F20001F93CF93DF93EC018B016F5F7F4F88810D
:101F300099810E94D516009731F0998388831B837D
:101F40000A8381E001C080E0DF91CF911F910F9162
:101F50000895CF93DF93EC0188819981892B29F033
:101F60008A819B818617970760F4CE010E948F0FAC
:101F7000882341F08C819D81892B19F4E881F981B6
:101F8000108281E0DF91CF910895EF92FF920F933D
:101F90001F93CF93DF93EC017B018A01BA010E946A
:101FA000A90F811104C0CE010E947D0F07C01D83BF
:101FB0000C83B701888199810E94A817CE01DF9117
:101FC000CF911F910F91FF90EF900895FC01118226
:101FD000108213821282158214826115710559F0E4
:101FE000FB0101900020E9F7AF0141505109461B68
:101FF000570B0C94C50F0895EF92FF920F931F9308
:10200000CF93DF93EC017B010C811D81611571057C
:1020100011F480E016C04115510591F0040F151F11
:10202000B8010E94A90F8823A1F3288139818C81EE
:102030009D81B701820F931F0E94A8171D830C83F7
:1020400081E0DF91CF911F910F91FF90EF90089564
:10205000CF93DF93EC01FB01448155816081718155
:102060000E94FC0F811103C0CE010E947D0FCE01A2
:10207000DF91CF910895CF93DF93EC016115710546
:1020800069F0FB0101900020E9F7AF0141505109CF
:10209000461B570B0E94FC0F811103C0CE010E940A
:1020A0007D0FCE01DF91CF91089508950E94061112
:1020B0000E9455100E943F02C6EADBE00E946803BE
:1020C0002097E1F30E94A60BF9CF1F920F920FB653
:1020D0000F9211242F933F938F939F93AF93BF93AE
:1020E0008091BE059091BF05A091C005B091C1053A
:1020F0003091BD0523E0230F2D3720F40196A11D5B
:10210000B11D05C026E8230F0296A11DB11D209325
:10211000BD058093BE059093BF05A093C005B09305
:10212000C1058091C2059091C305A091C405B091ED
:10213000C5050196A11DB11D8093C2059093C305ED
:10214000A093C405B093C505BF91AF919F918F91A6
:102150003F912F910F900FBE0F901F9018952FB7A2
:10216000F8946091BE057091BF058091C005909173
:10217000C1052FBF08953FB7F8948091C205909193
:10218000C305A091C405B091C50526B5A89B05C09F
:102190002F3F19F00196A11DB11D3FBF6627782F73
:1021A000892F9A2F620F711D811D911D42E0660FCC
:1021B000771F881F991F4A95D1F70895CF92DF9214
:1021C000EF92FF92CF93DF936B017C010E94BB10D3
:1021D000EB01C114D104E104F10489F00E94D9118A
:1021E0000E94BB106C1B7D0B683E734090F381E036
:1021F000C81AD108E108F108C851DC4FEACFDF91D5
:10220000CF91FF90EF90DF90CF900895789484B5B0
:10221000826084BD84B5816084BD85B5826085BDE2
:1022200085B5816085BDEEE6F0E0808181608083C8
:10223000E1E8F0E0108280818260808380818160AB
:102240008083E0E8F0E0808181608083E1EBF0E072
:10225000808184608083E0EBF0E080818160808316
:10226000EAE7F0E0808184608083808182608083FF
:102270008081816080838081806880831092C1002A
:102280000895833081F028F4813099F08230A1F0F4
:1022900008958730A9F08830B9F08430D1F4809166
:1022A00080008F7D03C0809180008F7780938000B5
:1022B000089584B58F7702C084B58F7D84BD08955D
:1022C0008091B0008F7703C08091B0008F7D8093A4
:1022D000B0000895CF93DF9390E0FC01E250FF4FF0
:1022E0002491FC01EE5EFE4F8491882349F190E039
:1022F000880F991FFC01E05DFE4FA591B4918A5DA6
:102300009E4FFC01C591D4919FB7611108C0F8940C
:102310008C91209582238C93888182230AC062301D
:1023200051F4F8948C91322F309583238C938881CB
:10233000822B888304C0F8948C91822B8C939FBF4E
:10234000DF91CF9108950F931F93CF93DF931F9247
:10235000CDB7DEB7282F30E0F901E651FF4F849169
:10236000F901E250FF4F1491F901EE5EFE4F049126
:102370000023C9F0882321F069830E9441116981FB
:10238000E02FF0E0EE0FFF1FEA5DFE4FA591B49144
:102390009FB7F8948C91611103C01095812301C0FF
:1023A000812B8C939FBF0F90DF91CF911F910F9145
:1023B000089508955058BB27AA270ED075C166D13D
:1023C00030F06BD120F031F49F3F11F41EF45BC16B
:1023D0000EF4E095E7FB51C1E92F77D180F3BA17EE
:1023E000620773078407950718F071F49EF58FC193
:1023F0000EF4E0950B2EBA2FA02D0B01B901900120
:102400000C01CA01A0011124FF27591B99F0593F63
:1024100050F4503E68F11A16F040A22F232F342FAB
:102420004427585FF3CF469537952795A795F040F9
:102430005395C9F77EF41F16BA0B620B730B840B0E
:10244000BAF09150A1F0FF0FBB1F661F771F881FC6
:10245000C2F70EC0BA0F621F731F841F48F487951E
:1024600077956795B795F7959E3F08F0B3CF93950D
:10247000880F08F09927EE0F979587950895D9D082
:1024800008F481E008950CD00FC107D140F0FED0D0
:1024900030F021F45F3F19F0F0C0511139C1F3C0A1
:1024A00014D198F39923C9F35523B1F3951B550B18
:1024B000BB27AA2762177307840738F09F5F5F4F17
:1024C000220F331F441FAA1FA9F333D00E2E3AF058
:1024D000E0E830D091505040E695001CCAF729D072
:1024E000FE2F27D0660F771F881FBB1F26173707C1
:1024F0004807AB07B0E809F0BB0B802DBF01FF27F1
:1025000093585F4F2AF09E3F510568F0B6C000C156
:102510005F3FECF3983EDCF3869577956795B7952A
:10252000F7959F5FC9F7880F911D9695879597F945
:102530000895E1E0660F771F881FBB1F62177307BE
:102540008407BA0720F0621B730B840BBA0BEE1FD3
:1025500088F7E095089504D06894B111D9C0089522
:10256000BCD088F09F5790F0B92F9927B751A0F0B1
:10257000D1F0660F771F881F991F1AF0BA95C9F717
:1025800012C0B13081F0C3D0B1E00895C0C0672F50
:10259000782F8827B85F39F0B93FCCF386957795C7
:1025A0006795B395D9F73EF49095809570956195B0
:1025B0007F4F8F4F9F4F0895E89409C097FB3EF4DB
:1025C00090958095709561957F4F8F4F9F4F992380
:1025D000A9F0F92F96E9BB279395F69587957795FE
:1025E0006795B795F111F8CFFAF4BB0F11F460FFBE
:1025F0001BC06F5F7F4F8F4F9F4F16C0882311F016
:1026000096E911C0772321F09EE8872F762F05C029
:10261000662371F096E8862F70E060E02AF09A95C4
:10262000660F771F881FDAF7880F9695879597F9B9
:102630000895990F0008550FAA0BE0E8FEEF161653
:102640001706E807F907C0F012161306E407F507A6
:1026500098F0621B730B840B950B39F40A2661F01A
:10266000232B242B252B21F408950A2609F4A140BD
:10267000A6958FEF811D811D089597F99F6780E8CA
:1026800070E060E008959FEF80EC089500240A94C4
:102690001616170618060906089500240A9412163D
:1026A0001306140605060895092E0394000C11F470
:1026B000882352F0BB0F40F4BF2B11F460FF04C01D
:1026C0006F5F7F4F8F4F9F4F089557FD9058440F76
:1026D000551F59F05F3F71F04795880F97FB991F81
:1026E00061F09F3F79F0879508951216130614063E
:1026F000551FF2CF4695F1DF08C0161617061806CB
:10270000991FF1CF86957105610508940895E894A5
:10271000BB2766277727CB0197F908958ADF08F44E
:102720008FEF08950BD0C0CFB1DF28F0B6DF18F0DF
:10273000952309F0A2CFA7CF1124EACFC6DFA0F3DB
:10274000959FD1F3950F50E0551F629FF001729F46
:10275000BB27F00DB11D639FAA27F00DB11DAA1F65
:10276000649F6627B00DA11D661F829F2227B00DB2
:10277000A11D621F739FB00DA11D621F839FA00D3D
:10278000611D221F749F3327A00D611D231F849F8D
:10279000600D211D822F762F6A2F11249F575040E4
:1027A0008AF0E1F088234AF0EE0FFF1FBB1F661F7F
:1027B000771F881F91505040A9F79E3F510570F038
:1027C0005CCFA6CF5F3FECF3983EDCF38695779520
:1027D0006795B795F795E7959F5FC1F7FE2B880F33
:1027E000911D9695879597F90895FA01EE0FFF1FB1
:1027F00030962105310599F16115710561F4803834
:10280000BFE39B0749F168949038810561F08038F7
:10281000BFEF9B0741F0992342F5FF3FE1053105EA
:10282000210511F1E8940894E795D901AA2329F428
:10283000AB2FBE2FF85FD0F310C0FF5F70F4A695EA
:10284000E0F7F73950F019F0FF3A38F49F779F938B
:102850000CD00F9007FC905808953EF014CF60E024
:1028600070E080E89FE308954FE79F775F934F9371
:102870003F932F93A2D02F913F914F915F9152DFC1
:1028800009C0D7DE880B990B089519F40EF0F5CE28
:102890003ECFF9CE22DFC8F39638C0F707F80F9283
:1028A000E8942BE33AEA48EB5FE74ADF0F920F9296
:1028B0000F924DB75EB70F92C0D0E8E6F0E016D0A9
:1028C0004F915F91EF91FF91E595EE1FFF1F49F04A
:1028D000FE57E0684427EE0F441FFA95E1F7419553
:1028E000550B32D00F9007FE26C00895DF93CF938B
:1028F0001F930F93FF92EF92DF927B018C016894FC
:1029000005C0DA2EEF011ADFFE01E894A5912591AA
:10291000359145915591AEF3EF015EDDFE019701D2
:10292000A801DA9479F7DF90EF90FF900F911F9153
:10293000CF91DF9108959B01AC0160E070E080E8E9
:102940009FE3A1CD9ACEACC0C8DEE8F39923D9F3BA
:10295000940F511DBBF39150504094F059F08823CF
:1029600032F0660F771F881F91505040C1F79E3F8D
:10297000510544F7880F911D9695879597F908950D
:102980005F3FACF0983E9CF0BB27869577956795A6
:10299000B79508F4B1609395C1F7BB0F58F711F4E0
:1029A00060FFE8CF6F5F7F4F8F4F9F4FE3CFB0CE79
:1029B0000EF076C068CE689460CE8FDEC8F399239F
:1029C000D1F3C6F3DF93CF931F930F93FF92C92FD9
:1029D000DD2788232AF02197660F771F881FDAF7F3
:1029E00020E030E040E85FEB9FE3883920F0803E54
:1029F00030F021968F77DFDCE0E9F0E003C0DBDC2C
:102A0000EDEBF0E073DF8B01BE01EC01FB2E6F57A5
:102A100071097595771F880B990BD0DD28E132E796
:102A200041E35FE38BDEAF2D9801AE01FF900F9184
:102A30001F91CF91DF91D0DC37CEFA01DC01AA0FD4
:102A4000BB1F9B01AC01BF5728F422273327442723
:102A500050781FC0B75188F4AB2F002446953795A6
:102A60002795011CA395D2F3002069F0220F331F94
:102A7000441FB395DAF30DD09DCC61307105A0E809
:102A80008A07B94630F49B01AC016627772788276F
:102A90009078309621F020833183428353830895C8
:102AA0009F3F31F0915020F4879577956795B795C2
:102AB000880F911D9695879597F9089597FB072E96
:102AC00016F4009407D077FD09D00E94941507FCF6
:102AD00005D03EF4909581959F4F0895709561952E
:102AE0007F4F0895A1E21A2EAA1BBB1BFD010DC04A
:102AF000AA1FBB1FEE1FFF1FA217B307E407F507AE
:102B000020F0A21BB30BE40BF50B661F771F881F89
:102B1000991F1A9469F760957095809590959B011F
:102B2000AC01BD01CF010895AA1BBB1B51E107C039
:102B3000AA1FBB1FA617B70710F0A61BB70B881F4D
:102B4000991F5A95A9F780959095BC01CD010895DC
:102B5000EE0FFF1F0590F491E02D0994CF93DF93C2
:102B60008230910510F482E090E0E091C805F09188
:102B7000C90520E030E0A0E0B0E0309739F14081B5
:102B8000518148175907B8F04817590771F48281E5
:102B90009381109729F013969C938E9312972CC0D3
:102BA0009093C9058093C80527C02115310531F0E0
:102BB0004217530718F0A901DB0101C0EF019A0188
:102BC000BD01DF010280F381E02DD7CF2115310552
:102BD000F9F0281B390B2430310580F48A819B8160
:102BE0006115710521F0FB019383828304C09093EA
:102BF000C9058093C805FE01329644C0FE01E20F6C
:102C0000F31F8193919322503109398328833AC06D
:102C10002091C6053091C705232B41F42091020174
:102C2000309103013093C7052093C6052091000120
:102C3000309101012115310541F42DB73EB7409186
:102C4000040150910501241B350BE091C605F0915C
:102C5000C705E217F307A0F42E1B3F0B281739070F
:102C600078F0AC014E5F5F4F2417350748F04E0FE8
:102C70005F1F5093C7054093C6058193919302C08F
:102C8000E0E0F0E0CF01DF91CF910895CF93DF93A3
:102C9000009709F487C0FC01329713821282C09119
:102CA000C805D091C905209781F420813181280F72
:102CB000391F8091C6059091C7058217930779F552
:102CC000F093C705E093C6056DC0DE0120E030E05B
:102CD000AE17BF0750F412964D915C9113979D016A
:102CE0004115510509F1DA01F3CFB383A283408185
:102CF0005181840F951F8A179B0771F48D919C91C8
:102D00001197840F951F02969183808312968D915F
:102D10009C911397938382832115310529F4F093B5
:102D2000C905E093C8053EC0D9011396FC93EE9304
:102D300012974D915D91A40FB51FEA17FB0779F427
:102D400080819181840F951F0296D90111969C93E1
:102D50008E938281938113969C938E931297E0E0D9
:102D6000F0E08A819B81009719F0FE01EC01F9CF18
:102D7000CE01029628813981820F931F2091C605CA
:102D80003091C7052817390769F4309729F4109254
:102D9000C9051092C80502C013821282D093C705DC
:102DA000C093C605DF91CF910895A0E0B0E0EBEDB0
:102DB000F6E10C94B317EC01CB01209719F40E94B3
:102DC000AE15B8C0FE01E60FF71F9E012250310973
:102DD000E217F30708F4ACC0D9010D911C911197CB
:102DE00006171707B8F00530110508F49FC0A801B1
:102DF000445051094617570708F498C0025011096A
:102E0000061B170B019311936D937C93CF010E94C6
:102E100046168CC05B01A01AB10A4E01800E911EAD
:102E2000A091C805B091C905612C712C60E070E0DB
:102E3000109709F449C0A815B905C9F5ED90FC90A3
:102E40001197670142E0C40ED11CCA14DB0478F16B
:102E500047018A189B08640142E0C40ED11C1296F7
:102E6000BC9012971396AC91B5E0CB16D10440F00C
:102E7000B282A38391828082D9018D939C9309C0F1
:102E80000E5F1F4F0E0D1F1DF90111830083EB2DE7
:102E9000FA2F6115710531F0DB011396FC93EE9367
:102EA000129744C0F093C905E093C8053FC06D91E7
:102EB0007C9111976616770608F43B01BD011296C6
:102EC0000D90BC91A02DB4CF6091C6057091C7053F
:102ED00068157905E9F468167906D0F44091000187
:102EE000509101014115510541F44DB75EB7609114
:102EF000040170910501461B570BE417F507C0F458
:102F0000F093C705E093C605F901918380830EC055
:102F10000E94AE157C01009759F0A801BE010E94E5
:102F20009F17CE010E944616C70104C0CE0102C001
:102F300080E090E0CDB7DEB7EEE00C94CF17FB0158
:102F4000DC0102C001900D9241505040D8F7089525
:102F5000FB01DC0101900D920020E1F708952F9212
:102F60003F924F925F926F927F928F929F92AF9219
:102F7000BF92CF92DF92EF92FF920F931F93CF9366
:102F8000DF93CDB7DEB7CA1BDB0B0FB6F894DEBFFD
:102F90000FBECDBF09942A88398848885F846E8423
:102FA0007D848C849B84AA84B984C884DF80EE806D
:102FB000FD800C811B81AA81B981CE0FD11D0FB676
:102FC000F894DEBF0FBECDBFED010895F894FFCF9A
:102FD0000000CA0580005B0030003A005D20004D13
:102FE0004F44554C452052454C45415345442028BB
:102FF0007472696767657265642062792000292EA2
:103000000053797374656D20676F696E6720746F04
:1030100020736C6565702E004572726F7220726548
:103020007472696576696E67207072657373757204
:1030300065206D6561737572656D656E742E0045F2
:1030400072726F72207374617274696E672070722D
:10305000657373757265206D6561737572656D65F5
:103060006E742E004572726F72207265747269659B
:1030700076696E6720726571756972656420746522
:103080006D7065726174757265206D6561737572BE
:10309000656D656E742E004572726F722073746177
:1030A0007274696E672072657175697265642074E7
:1030B000656D7065726174757265206D656173759B
:1030C00072656D656E742E00496E697469616C6914
:1030D0007A696E672E2E2E00507265737375726555
:1030E0002073656E736F72207375636365737366A7
:1030F000756C6C7920696E697469616C697A656454
:103100002E004E6F7720617474656D7074696E6700
:1031100020626173656C696E65207072657373758A
:1031200072652072656164696E672E2E2E00206DB7
:10313000622E00426173656C696E65207072657302
:10314000737572652069732000206D6574657273F4
:10315000004F75747075742077696C6C207265739C
:10316000756D6520617420002066656574292E20C8
:1031700000202800454D206375746F6666207769CE
:103180006C6C206F6363757220617420002066652B
:103190006574292C206F72206166746572206D61E0
:1031A000782074696D65206F66203520686F7572B0
:1031B000732E0053797374656D2069732072656195
:1031C000647920666F72206C61756E63682E0050A2
:1031D000726573737572652073656E736F722069A3
:1031E0006E697469616C697A6174696F6E20666179
:1031F000696C65642028697320697420646973634D
:103200006F6E6E65637465643F29007072657373D9
:103210007572652073656E736F722076616C75656B
:10322000006D61782074696D6520657863656564FB
:1032300065640053706563696669656420616C74D8
:10324000697475646520726561636865642E2052D7
:103250006573756D696E67206F75747075742E0077
:10326000206D65746572732000416C7469747564B7
:103270006520697320002066656574292061626F8E
:103280007665206C61756E636820736974652E20A5
:103290000000000000ED06C00695069D06B006BFC2
:1032A0000600000000F70B630D790B920B840BD521
:1032B0000B0D0A006E616E00696E66006F76660027
:00000001FF
